{
  "_format": "hh-sol-artifact-1",
  "contractName": "Quests",
  "sourceName": "contracts/Quests.sol",
  "abi": [
    {
      "inputs": [
        {
          "internalType": "address",
          "name": "_adminAddress",
          "type": "address"
        }
      ],
      "stateMutability": "nonpayable",
      "type": "constructor"
    },
    {
      "anonymous": false,
      "inputs": [
        {
          "indexed": true,
          "internalType": "address",
          "name": "admin",
          "type": "address"
        }
      ],
      "name": "AdminLoggedIn",
      "type": "event"
    },
    {
      "anonymous": false,
      "inputs": [
        {
          "indexed": true,
          "internalType": "address",
          "name": "admin",
          "type": "address"
        }
      ],
      "name": "AdminLoggedOut",
      "type": "event"
    },
    {
      "anonymous": false,
      "inputs": [
        {
          "indexed": true,
          "internalType": "address",
          "name": "admin",
          "type": "address"
        },
        {
          "indexed": false,
          "internalType": "string",
          "name": "name",
          "type": "string"
        },
        {
          "indexed": false,
          "internalType": "string",
          "name": "ipfsImageHash",
          "type": "string"
        }
      ],
      "name": "AdminRegistered",
      "type": "event"
    },
    {
      "anonymous": false,
      "inputs": [
        {
          "indexed": true,
          "internalType": "uint256",
          "name": "questId",
          "type": "uint256"
        },
        {
          "indexed": true,
          "internalType": "address",
          "name": "user",
          "type": "address"
        }
      ],
      "name": "QuestCompleted",
      "type": "event"
    },
    {
      "anonymous": false,
      "inputs": [
        {
          "indexed": true,
          "internalType": "uint256",
          "name": "questId",
          "type": "uint256"
        },
        {
          "indexed": false,
          "internalType": "string",
          "name": "description",
          "type": "string"
        },
        {
          "indexed": false,
          "internalType": "uint256",
          "name": "points",
          "type": "uint256"
        },
        {
          "indexed": false,
          "internalType": "address",
          "name": "requiredTokenAddress",
          "type": "address"
        },
        {
          "indexed": false,
          "internalType": "uint256",
          "name": "requiredTokenAmount",
          "type": "uint256"
        }
      ],
      "name": "QuestCreated",
      "type": "event"
    },
    {
      "anonymous": false,
      "inputs": [
        {
          "indexed": true,
          "internalType": "uint256",
          "name": "questId",
          "type": "uint256"
        }
      ],
      "name": "QuestDeleted",
      "type": "event"
    },
    {
      "anonymous": false,
      "inputs": [
        {
          "indexed": true,
          "internalType": "uint256",
          "name": "questId",
          "type": "uint256"
        },
        {
          "indexed": false,
          "internalType": "string",
          "name": "description",
          "type": "string"
        },
        {
          "indexed": false,
          "internalType": "uint256",
          "name": "points",
          "type": "uint256"
        },
        {
          "indexed": false,
          "internalType": "address",
          "name": "requiredTokenAddress",
          "type": "address"
        },
        {
          "indexed": false,
          "internalType": "uint256",
          "name": "requiredTokenAmount",
          "type": "uint256"
        },
        {
          "indexed": false,
          "internalType": "bool",
          "name": "active",
          "type": "bool"
        }
      ],
      "name": "QuestUpdated",
      "type": "event"
    },
    {
      "anonymous": false,
      "inputs": [
        {
          "indexed": true,
          "internalType": "address",
          "name": "user",
          "type": "address"
        }
      ],
      "name": "UserLoggedIn",
      "type": "event"
    },
    {
      "anonymous": false,
      "inputs": [
        {
          "indexed": true,
          "internalType": "address",
          "name": "user",
          "type": "address"
        }
      ],
      "name": "UserLoggedOut",
      "type": "event"
    },
    {
      "anonymous": false,
      "inputs": [
        {
          "indexed": true,
          "internalType": "address",
          "name": "user",
          "type": "address"
        },
        {
          "indexed": false,
          "internalType": "string",
          "name": "name",
          "type": "string"
        },
        {
          "indexed": false,
          "internalType": "string",
          "name": "ipfsImageHash",
          "type": "string"
        }
      ],
      "name": "UserRegistered",
      "type": "event"
    },
    {
      "inputs": [
        {
          "internalType": "uint256",
          "name": "questId",
          "type": "uint256"
        }
      ],
      "name": "canSolveQuest",
      "outputs": [
        {
          "internalType": "bool",
          "name": "",
          "type": "bool"
        }
      ],
      "stateMutability": "view",
      "type": "function"
    },
    {
      "inputs": [
        {
          "internalType": "address",
          "name": "_address",
          "type": "address"
        }
      ],
      "name": "checkIsAdminLogged",
      "outputs": [
        {
          "internalType": "bool",
          "name": "",
          "type": "bool"
        },
        {
          "internalType": "string",
          "name": "",
          "type": "string"
        }
      ],
      "stateMutability": "view",
      "type": "function"
    },
    {
      "inputs": [
        {
          "internalType": "address",
          "name": "_address",
          "type": "address"
        }
      ],
      "name": "checkIsUserLogged",
      "outputs": [
        {
          "internalType": "bool",
          "name": "",
          "type": "bool"
        },
        {
          "internalType": "string",
          "name": "",
          "type": "string"
        }
      ],
      "stateMutability": "view",
      "type": "function"
    },
    {
      "inputs": [
        {
          "internalType": "uint256",
          "name": "questId",
          "type": "uint256"
        }
      ],
      "name": "completeQuest",
      "outputs": [],
      "stateMutability": "nonpayable",
      "type": "function"
    },
    {
      "inputs": [
        {
          "internalType": "string",
          "name": "description",
          "type": "string"
        },
        {
          "internalType": "uint256",
          "name": "points",
          "type": "uint256"
        },
        {
          "internalType": "address",
          "name": "requiredTokenAddress",
          "type": "address"
        },
        {
          "internalType": "uint256",
          "name": "requiredTokenAmount",
          "type": "uint256"
        }
      ],
      "name": "createQuest",
      "outputs": [],
      "stateMutability": "nonpayable",
      "type": "function"
    },
    {
      "inputs": [
        {
          "internalType": "uint256",
          "name": "questId",
          "type": "uint256"
        }
      ],
      "name": "deleteQuest",
      "outputs": [],
      "stateMutability": "nonpayable",
      "type": "function"
    },
    {
      "inputs": [],
      "name": "eggsAddress",
      "outputs": [
        {
          "internalType": "address",
          "name": "",
          "type": "address"
        }
      ],
      "stateMutability": "view",
      "type": "function"
    },
    {
      "inputs": [
        {
          "internalType": "address",
          "name": "_address",
          "type": "address"
        }
      ],
      "name": "getAdminBalance",
      "outputs": [
        {
          "internalType": "uint256",
          "name": "",
          "type": "uint256"
        }
      ],
      "stateMutability": "view",
      "type": "function"
    },
    {
      "inputs": [],
      "name": "getTop10Players",
      "outputs": [
        {
          "components": [
            {
              "internalType": "address",
              "name": "user",
              "type": "address"
            },
            {
              "internalType": "uint256",
              "name": "points",
              "type": "uint256"
            }
          ],
          "internalType": "struct Quests.Player[]",
          "name": "",
          "type": "tuple[]"
        }
      ],
      "stateMutability": "view",
      "type": "function"
    },
    {
      "inputs": [],
      "name": "iotabotsAddress",
      "outputs": [
        {
          "internalType": "address",
          "name": "",
          "type": "address"
        }
      ],
      "stateMutability": "view",
      "type": "function"
    },
    {
      "inputs": [
        {
          "internalType": "uint256",
          "name": "",
          "type": "uint256"
        }
      ],
      "name": "leaderboard",
      "outputs": [
        {
          "internalType": "address",
          "name": "user",
          "type": "address"
        },
        {
          "internalType": "uint256",
          "name": "points",
          "type": "uint256"
        }
      ],
      "stateMutability": "view",
      "type": "function"
    },
    {
      "inputs": [
        {
          "internalType": "address",
          "name": "_address",
          "type": "address"
        },
        {
          "internalType": "string",
          "name": "_password",
          "type": "string"
        }
      ],
      "name": "loginAdmin",
      "outputs": [
        {
          "internalType": "bool",
          "name": "",
          "type": "bool"
        }
      ],
      "stateMutability": "nonpayable",
      "type": "function"
    },
    {
      "inputs": [
        {
          "internalType": "address",
          "name": "_address",
          "type": "address"
        },
        {
          "internalType": "string",
          "name": "_password",
          "type": "string"
        }
      ],
      "name": "loginUser",
      "outputs": [
        {
          "internalType": "bool",
          "name": "",
          "type": "bool"
        }
      ],
      "stateMutability": "nonpayable",
      "type": "function"
    },
    {
      "inputs": [
        {
          "internalType": "address",
          "name": "_address",
          "type": "address"
        }
      ],
      "name": "logoutAdmin",
      "outputs": [],
      "stateMutability": "nonpayable",
      "type": "function"
    },
    {
      "inputs": [
        {
          "internalType": "address",
          "name": "_address",
          "type": "address"
        }
      ],
      "name": "logoutUser",
      "outputs": [],
      "stateMutability": "nonpayable",
      "type": "function"
    },
    {
      "inputs": [],
      "name": "nextQuestId",
      "outputs": [
        {
          "internalType": "uint256",
          "name": "",
          "type": "uint256"
        }
      ],
      "stateMutability": "view",
      "type": "function"
    },
    {
      "inputs": [
        {
          "internalType": "uint256",
          "name": "",
          "type": "uint256"
        }
      ],
      "name": "quests",
      "outputs": [
        {
          "internalType": "uint256",
          "name": "id",
          "type": "uint256"
        },
        {
          "internalType": "string",
          "name": "description",
          "type": "string"
        },
        {
          "internalType": "uint256",
          "name": "points",
          "type": "uint256"
        },
        {
          "internalType": "address",
          "name": "requiredTokenAddress",
          "type": "address"
        },
        {
          "internalType": "uint256",
          "name": "requiredTokenAmount",
          "type": "uint256"
        },
        {
          "internalType": "bool",
          "name": "active",
          "type": "bool"
        }
      ],
      "stateMutability": "view",
      "type": "function"
    },
    {
      "inputs": [
        {
          "internalType": "address",
          "name": "_address",
          "type": "address"
        },
        {
          "internalType": "string",
          "name": "_name",
          "type": "string"
        },
        {
          "internalType": "string",
          "name": "_password",
          "type": "string"
        },
        {
          "internalType": "string",
          "name": "_ipfsImageHash",
          "type": "string"
        }
      ],
      "name": "registerAdmin",
      "outputs": [
        {
          "internalType": "bool",
          "name": "",
          "type": "bool"
        }
      ],
      "stateMutability": "nonpayable",
      "type": "function"
    },
    {
      "inputs": [
        {
          "internalType": "address",
          "name": "_address",
          "type": "address"
        },
        {
          "internalType": "string",
          "name": "_name",
          "type": "string"
        },
        {
          "internalType": "string",
          "name": "_password",
          "type": "string"
        },
        {
          "internalType": "string",
          "name": "_ipfsImageHash",
          "type": "string"
        }
      ],
      "name": "registerUser",
      "outputs": [
        {
          "internalType": "bool",
          "name": "",
          "type": "bool"
        }
      ],
      "stateMutability": "nonpayable",
      "type": "function"
    },
    {
      "inputs": [
        {
          "internalType": "uint256",
          "name": "questId",
          "type": "uint256"
        },
        {
          "internalType": "string",
          "name": "description",
          "type": "string"
        },
        {
          "internalType": "uint256",
          "name": "points",
          "type": "uint256"
        },
        {
          "internalType": "address",
          "name": "requiredTokenAddress",
          "type": "address"
        },
        {
          "internalType": "uint256",
          "name": "requiredTokenAmount",
          "type": "uint256"
        },
        {
          "internalType": "bool",
          "name": "active",
          "type": "bool"
        }
      ],
      "name": "updateQuest",
      "outputs": [],
      "stateMutability": "nonpayable",
      "type": "function"
    },
    {
      "inputs": [
        {
          "internalType": "address",
          "name": "",
          "type": "address"
        }
      ],
      "name": "userPoints",
      "outputs": [
        {
          "internalType": "uint256",
          "name": "",
          "type": "uint256"
        }
      ],
      "stateMutability": "view",
      "type": "function"
    }
  ],
  "bytecode": "0x60806040523480156200001157600080fd5b5060405162002f6238038062002f62833981810160405281019062000037919062000096565b80600860006101000a81548173ffffffffffffffffffffffffffffffffffffffff021916908373ffffffffffffffffffffffffffffffffffffffff160217905550506200011b565b600081519050620000908162000101565b92915050565b600060208284031215620000af57620000ae620000fc565b5b6000620000bf848285016200007f565b91505092915050565b6000620000d582620000dc565b9050919050565b600073ffffffffffffffffffffffffffffffffffffffff82169050919050565b600080fd5b6200010c81620000c8565b81146200011857600080fd5b50565b612e37806200012b6000396000f3fe608060405234801561001057600080fd5b50600436106101375760003560e01c80635f7018eb116100b85780639f60fabc1161007c5780639f60fabc14610360578063bf36839914610390578063d638c983146103c1578063e085f980146103df578063f50ddbc714610414578063fe69c2961461044457610137565b80635f7018eb146102bb578063645cf80f146102d95780638c9e36ab146102f557806395b313051461031357806398711c171461032f57610137565b8063297f7b39116100ff578063297f7b39146101f0578063434917af146102215780634b19173214610251578063528be0a91461028157806358fe27961461029d57610137565b806303bdb46b1461013c57806309df50601461016c5780630f7deff314610188578063103d36b8146101a4578063128c9f01146101c0575b600080fd5b6101566004803603810190610151919061222d565b610474565b60405161016391906127a0565b60405180910390f35b61018660048036038101906101819190612200565b61060a565b005b6101a2600480360381019061019d9190612344565b6106ab565b005b6101be60048036038101906101b991906123c7565b610865565b005b6101da60048036038101906101d59190612200565b6109c0565b6040516101e79190612928565b60405180910390f35b61020a60048036038101906102059190612200565b610a43565b6040516102189291906127bb565b60405180910390f35b61023b6004803603810190610236919061222d565b610b6e565b60405161024891906127a0565b60405180910390f35b61026b600480360381019061026691906123c7565b610cc2565b60405161027891906127a0565b60405180910390f35b61029b600480360381019061029691906123c7565b610e34565b005b6102a5610ff1565b6040516102b2919061273a565b60405180910390f35b6102c3611017565b6040516102d0919061277e565b60405180910390f35b6102f360048036038101906102ee9190612200565b6110d6565b005b6102fd611134565b60405161030a919061273a565b60405180910390f35b61032d60048036038101906103289190612421565b61115a565b005b61034960048036038101906103449190612200565b611338565b6040516103579291906127bb565b60405180910390f35b61037a60048036038101906103759190612289565b611463565b60405161038791906127a0565b60405180910390f35b6103aa60048036038101906103a591906123c7565b611747565b6040516103b8929190612755565b60405180910390f35b6103c961179b565b6040516103d69190612928565b60405180910390f35b6103f960048036038101906103f491906123c7565b6117a1565b60405161040b96959493929190612943565b60405180910390f35b61042e60048036038101906104299190612200565b611892565b60405161043b9190612928565b60405180910390f35b61045e60048036038101906104599190612289565b6118aa565b60405161046b91906127a0565b60405180910390f35b600081604051602001610487919061270c565b60405160208183030381529060405280519060200120600160008573ffffffffffffffffffffffffffffffffffffffff1673ffffffffffffffffffffffffffffffffffffffff1681526020019081526020016000206002016040516020016104ef9190612723565b6040516020818303038152906040528051906020012014156105ff5760018060008573ffffffffffffffffffffffffffffffffffffffff1673ffffffffffffffffffffffffffffffffffffffff16815260200190815260200160002060040160006101000a81548160ff0219169083151502179055508273ffffffffffffffffffffffffffffffffffffffff167f8d15fde878cff665868ed7579eb5081db6508d4249df61dcdd7699a5301d987460405160405180910390a2600160008473ffffffffffffffffffffffffffffffffffffffff1673ffffffffffffffffffffffffffffffffffffffff16815260200190815260200160002060040160009054906101000a900460ff169050610604565b600090505b92915050565b6000600160008373ffffffffffffffffffffffffffffffffffffffff1673ffffffffffffffffffffffffffffffffffffffff16815260200190815260200160002060040160006101000a81548160ff0219169083151502179055508073ffffffffffffffffffffffffffffffffffffffff167fc6ef449222bae3754898fc5fa944d52dfc53c0ee1fdd7d733fbb422ac5e2b8c860405160405180910390a250565b600860009054906101000a900473ffffffffffffffffffffffffffffffffffffffff1673ffffffffffffffffffffffffffffffffffffffff163373ffffffffffffffffffffffffffffffffffffffff161461070557600080fd5b6040518060c0016040528060065481526020018581526020018481526020018373ffffffffffffffffffffffffffffffffffffffff16815260200182815260200160011515815250600560006006548152602001908152602001600020600082015181600001556020820151816001019080519060200190610788929190612059565b506040820151816002015560608201518160030160006101000a81548173ffffffffffffffffffffffffffffffffffffffff021916908373ffffffffffffffffffffffffffffffffffffffff1602179055506080820151816004015560a08201518160050160006101000a81548160ff0219169083151502179055509050506006547fd4fd88f33e2abba15398dd5bfe385c39dedd6767e705e9f651be4d681b4cf5648585858560405161083f9493929190612822565b60405180910390a26006600081548092919061085a90612c17565b919050555050505050565b600860009054906101000a900473ffffffffffffffffffffffffffffffffffffffff1673ffffffffffffffffffffffffffffffffffffffff163373ffffffffffffffffffffffffffffffffffffffff16146108bf57600080fd5b80600560008381526020019081526020016000206000015414610917576040517f08c379a000000000000000000000000000000000000000000000000000000000815260040161090e906128c8565b60405180910390fd5b6005600082815260200190815260200160002060008082016000905560018201600061094391906120df565b60028201600090556003820160006101000a81549073ffffffffffffffffffffffffffffffffffffffff021916905560048201600090556005820160006101000a81549060ff02191690555050807fcbe2e2b576d488acbd141580ea0928b24300831852f56c7eb39330a9a35e1e6d60405160405180910390a250565b6000600760008373ffffffffffffffffffffffffffffffffffffffff1673ffffffffffffffffffffffffffffffffffffffff16815260200190815260200160002060000160009054906101000a900473ffffffffffffffffffffffffffffffffffffffff1673ffffffffffffffffffffffffffffffffffffffff16319050919050565b60006060600160008473ffffffffffffffffffffffffffffffffffffffff1673ffffffffffffffffffffffffffffffffffffffff16815260200190815260200160002060040160009054906101000a900460ff16600160008573ffffffffffffffffffffffffffffffffffffffff1673ffffffffffffffffffffffffffffffffffffffff168152602001908152602001600020600301808054610ae590612bb4565b80601f0160208091040260200160405190810160405280929190818152602001828054610b1190612bb4565b8015610b5e5780601f10610b3357610100808354040283529160200191610b5e565b820191906000526020600020905b815481529060010190602001808311610b4157829003601f168201915b5050505050905091509150915091565b600081604051602001610b81919061270c565b60405160208183030381529060405280519060200120600760008573ffffffffffffffffffffffffffffffffffffffff1673ffffffffffffffffffffffffffffffffffffffff168152602001908152602001600020600201604051602001610be99190612723565b604051602081830303815290604052805190602001201415610cb7576001600760008573ffffffffffffffffffffffffffffffffffffffff1673ffffffffffffffffffffffffffffffffffffffff16815260200190815260200160002060040160006101000a81548160ff021916908315150217905550600760008473ffffffffffffffffffffffffffffffffffffffff1673ffffffffffffffffffffffffffffffffffffffff16815260200190815260200160002060040160009054906101000a900460ff169050610cbc565b600090505b92915050565b6000806005600084815260200190815260200160002090508060050160009054906101000a900460ff16610d2b576040517f08c379a0000000000000000000000000000000000000000000000000000000008152600401610d22906128e8565b60405180910390fd5b60008160030160009054906101000a900473ffffffffffffffffffffffffffffffffffffffff16905060008173ffffffffffffffffffffffffffffffffffffffff166370a08231336040518263ffffffff1660e01b8152600401610d8f919061273a565b60206040518083038186803b158015610da757600080fd5b505afa158015610dbb573d6000803e3d6000fd5b505050506040513d601f19601f82011682018060405250810190610ddf91906123f4565b90508260040154811015610e28576040517f08c379a0000000000000000000000000000000000000000000000000000000008152600401610e1f90612908565b60405180910390fd5b60019350505050919050565b60006005600083815260200190815260200160002090508060050160009054906101000a900460ff16610e9c576040517f08c379a0000000000000000000000000000000000000000000000000000000008152600401610e93906128e8565b60405180910390fd5b60008160030160009054906101000a900473ffffffffffffffffffffffffffffffffffffffff16905060008173ffffffffffffffffffffffffffffffffffffffff166370a08231336040518263ffffffff1660e01b8152600401610f00919061273a565b60206040518083038186803b158015610f1857600080fd5b505afa158015610f2c573d6000803e3d6000fd5b505050506040513d601f19601f82011682018060405250810190610f5091906123f4565b90508260040154811015610f99576040517f08c379a0000000000000000000000000000000000000000000000000000000008152600401610f9090612908565b60405180910390fd5b610fa7338460020154611bdf565b3373ffffffffffffffffffffffffffffffffffffffff16847f1f830b1eb1d06c99fa9684f55e907da9251648000c05474005094c53869dbf6060405160405180910390a350505050565b600360009054906101000a900473ffffffffffffffffffffffffffffffffffffffff1681565b60606000805480602002602001604051908101604052809291908181526020016000905b828210156110cd57838290600052602060002090600202016040518060400160405290816000820160009054906101000a900473ffffffffffffffffffffffffffffffffffffffff1673ffffffffffffffffffffffffffffffffffffffff1673ffffffffffffffffffffffffffffffffffffffff1681526020016001820154815250508152602001906001019061103b565b50505050905090565b6000600760008373ffffffffffffffffffffffffffffffffffffffff1673ffffffffffffffffffffffffffffffffffffffff16815260200190815260200160002060040160006101000a81548160ff02191690831515021790555050565b600460009054906101000a900473ffffffffffffffffffffffffffffffffffffffff1681565b600860009054906101000a900473ffffffffffffffffffffffffffffffffffffffff1673ffffffffffffffffffffffffffffffffffffffff163373ffffffffffffffffffffffffffffffffffffffff16146111b457600080fd5b8560056000888152602001908152602001600020600001541461120c576040517f08c379a0000000000000000000000000000000000000000000000000000000008152600401611203906128c8565b60405180910390fd5b84600560008881526020019081526020016000206001019080519060200190611236929190612059565b50836005600088815260200190815260200160002060020181905550826005600088815260200190815260200160002060030160006101000a81548173ffffffffffffffffffffffffffffffffffffffff021916908373ffffffffffffffffffffffffffffffffffffffff160217905550816005600088815260200190815260200160002060040181905550806005600088815260200190815260200160002060050160006101000a81548160ff021916908315150217905550857f823dc2f5abe16138e75299673ed6c5cc31d72a0bec072c1a20f8312ddc9ebcbb868686868660405161132895949392919061286e565b60405180910390a2505050505050565b60006060600760008473ffffffffffffffffffffffffffffffffffffffff1673ffffffffffffffffffffffffffffffffffffffff16815260200190815260200160002060040160009054906101000a900460ff16600760008573ffffffffffffffffffffffffffffffffffffffff1673ffffffffffffffffffffffffffffffffffffffff1681526020019081526020016000206003018080546113da90612bb4565b80601f016020809104026020016040519081016040528092919081815260200182805461140690612bb4565b80156114535780601f1061142857610100808354040283529160200191611453565b820191906000526020600020905b81548152906001019060200180831161143657829003601f168201915b5050505050905091509150915091565b6000600860009054906101000a900473ffffffffffffffffffffffffffffffffffffffff1673ffffffffffffffffffffffffffffffffffffffff163373ffffffffffffffffffffffffffffffffffffffff16146114bf57600080fd5b3373ffffffffffffffffffffffffffffffffffffffff16600760008773ffffffffffffffffffffffffffffffffffffffff1673ffffffffffffffffffffffffffffffffffffffff16815260200190815260200160002060000160009054906101000a900473ffffffffffffffffffffffffffffffffffffffff1673ffffffffffffffffffffffffffffffffffffffff16141561155a57600080fd5b84600760008773ffffffffffffffffffffffffffffffffffffffff1673ffffffffffffffffffffffffffffffffffffffff16815260200190815260200160002060000160006101000a81548173ffffffffffffffffffffffffffffffffffffffff021916908373ffffffffffffffffffffffffffffffffffffffff16021790555083600760008773ffffffffffffffffffffffffffffffffffffffff1673ffffffffffffffffffffffffffffffffffffffff1681526020019081526020016000206001019080519060200190611631929190612059565b5082600760008773ffffffffffffffffffffffffffffffffffffffff1673ffffffffffffffffffffffffffffffffffffffff1681526020019081526020016000206002019080519060200190611688929190612059565b5081600760008773ffffffffffffffffffffffffffffffffffffffff1673ffffffffffffffffffffffffffffffffffffffff16815260200190815260200160002060030190805190602001906116df929190612059565b506000600760008773ffffffffffffffffffffffffffffffffffffffff1673ffffffffffffffffffffffffffffffffffffffff16815260200190815260200160002060040160006101000a81548160ff02191690831515021790555060019050949350505050565b6000818154811061175757600080fd5b90600052602060002090600202016000915090508060000160009054906101000a900473ffffffffffffffffffffffffffffffffffffffff16908060010154905082565b60065481565b60056020528060005260406000206000915090508060000154908060010180546117ca90612bb4565b80601f01602080910402602001604051908101604052809291908181526020018280546117f690612bb4565b80156118435780601f1061181857610100808354040283529160200191611843565b820191906000526020600020905b81548152906001019060200180831161182657829003601f168201915b5050505050908060020154908060030160009054906101000a900473ffffffffffffffffffffffffffffffffffffffff16908060040154908060050160009054906101000a900460ff16905086565b60026020528060005260406000206000915090505481565b6000600860009054906101000a900473ffffffffffffffffffffffffffffffffffffffff1673ffffffffffffffffffffffffffffffffffffffff163373ffffffffffffffffffffffffffffffffffffffff16141561190757600080fd5b3373ffffffffffffffffffffffffffffffffffffffff16600160008773ffffffffffffffffffffffffffffffffffffffff1673ffffffffffffffffffffffffffffffffffffffff16815260200190815260200160002060000160009054906101000a900473ffffffffffffffffffffffffffffffffffffffff1673ffffffffffffffffffffffffffffffffffffffff1614156119a257600080fd5b84600160008773ffffffffffffffffffffffffffffffffffffffff1673ffffffffffffffffffffffffffffffffffffffff16815260200190815260200160002060000160006101000a81548173ffffffffffffffffffffffffffffffffffffffff021916908373ffffffffffffffffffffffffffffffffffffffff16021790555083600160008773ffffffffffffffffffffffffffffffffffffffff1673ffffffffffffffffffffffffffffffffffffffff1681526020019081526020016000206001019080519060200190611a79929190612059565b5082600160008773ffffffffffffffffffffffffffffffffffffffff1673ffffffffffffffffffffffffffffffffffffffff1681526020019081526020016000206002019080519060200190611ad0929190612059565b5081600160008773ffffffffffffffffffffffffffffffffffffffff1673ffffffffffffffffffffffffffffffffffffffff1681526020019081526020016000206003019080519060200190611b27929190612059565b506000600160008773ffffffffffffffffffffffffffffffffffffffff1673ffffffffffffffffffffffffffffffffffffffff16815260200190815260200160002060040160006101000a81548160ff0219169083151502179055508473ffffffffffffffffffffffffffffffffffffffff167f92822564bab8864c3a47b34e8d23fbce5c46234eb5da261f94087b995ac0f33b8584604051611bcb9291906127eb565b60405180910390a260019050949350505050565b80600260008473ffffffffffffffffffffffffffffffffffffffff1673ffffffffffffffffffffffffffffffffffffffff1681526020019081526020016000206000828254611c2e9190612a76565b92505081905550611c3e82611c42565b5050565b6000600260008373ffffffffffffffffffffffffffffffffffffffff1673ffffffffffffffffffffffffffffffffffffffff16815260200190815260200160002054905060007fffffffffffffffffffffffffffffffffffffffffffffffffffffffffffffffff905060005b600080549050811015611dd55760008181548110611ccf57611cce612cbe565b5b906000526020600020906002020160000160009054906101000a900473ffffffffffffffffffffffffffffffffffffffff1673ffffffffffffffffffffffffffffffffffffffff168473ffffffffffffffffffffffffffffffffffffffff161415611d66578260008281548110611d4957611d48612cbe565b5b906000526020600020906002020160010181905550505050612056565b7fffffffffffffffffffffffffffffffffffffffffffffffffffffffffffffffff82148015611db9575060008181548110611da457611da3612cbe565b5b90600052602060002090600202016001015483115b15611dc2578091505b8080611dcd90612c17565b915050611cae565b507fffffffffffffffffffffffffffffffffffffffffffffffffffffffffffffffff811461205357600a6000805490501015611eb957600060405180604001604052808573ffffffffffffffffffffffffffffffffffffffff16815260200184815250908060018154018082558091505060019003906000526020600020906002020160009091909190915060008201518160000160006101000a81548173ffffffffffffffffffffffffffffffffffffffff021916908373ffffffffffffffffffffffffffffffffffffffff160217905550602082015181600101555050612052565b60006001600080549050611ecd9190612acc565b90505b81811115611faf576000600182611ee79190612acc565b81548110611ef857611ef7612cbe565b5b906000526020600020906002020160008281548110611f1a57611f19612cbe565b5b90600052602060002090600202016000820160009054906101000a900473ffffffffffffffffffffffffffffffffffffffff168160000160006101000a81548173ffffffffffffffffffffffffffffffffffffffff021916908373ffffffffffffffffffffffffffffffffffffffff160217905550600182015481600101559050508080611fa790612b8a565b915050611ed0565b5060405180604001604052808473ffffffffffffffffffffffffffffffffffffffff1681526020018381525060008281548110611fef57611fee612cbe565b5b906000526020600020906002020160008201518160000160006101000a81548173ffffffffffffffffffffffffffffffffffffffff021916908373ffffffffffffffffffffffffffffffffffffffff160217905550602082015181600101559050505b5b50505b50565b82805461206590612bb4565b90600052602060002090601f01602090048101928261208757600085556120ce565b82601f106120a057805160ff19168380011785556120ce565b828001600101855582156120ce579182015b828111156120cd5782518255916020019190600101906120b2565b5b5090506120db919061211f565b5090565b5080546120eb90612bb4565b6000825580601f106120fd575061211c565b601f01602090049060005260206000209081019061211b919061211f565b5b50565b5b80821115612138576000816000905550600101612120565b5090565b600061214f61214a846129d0565b6129ab565b90508281526020810184848401111561216b5761216a612d21565b5b612176848285612b48565b509392505050565b60008135905061218d81612dbc565b92915050565b6000813590506121a281612dd3565b92915050565b600082601f8301126121bd576121bc612d1c565b5b81356121cd84826020860161213c565b91505092915050565b6000813590506121e581612dea565b92915050565b6000815190506121fa81612dea565b92915050565b60006020828403121561221657612215612d2b565b5b60006122248482850161217e565b91505092915050565b6000806040838503121561224457612243612d2b565b5b60006122528582860161217e565b925050602083013567ffffffffffffffff81111561227357612272612d26565b5b61227f858286016121a8565b9150509250929050565b600080600080608085870312156122a3576122a2612d2b565b5b60006122b18782880161217e565b945050602085013567ffffffffffffffff8111156122d2576122d1612d26565b5b6122de878288016121a8565b935050604085013567ffffffffffffffff8111156122ff576122fe612d26565b5b61230b878288016121a8565b925050606085013567ffffffffffffffff81111561232c5761232b612d26565b5b612338878288016121a8565b91505092959194509250565b6000806000806080858703121561235e5761235d612d2b565b5b600085013567ffffffffffffffff81111561237c5761237b612d26565b5b612388878288016121a8565b9450506020612399878288016121d6565b93505060406123aa8782880161217e565b92505060606123bb878288016121d6565b91505092959194509250565b6000602082840312156123dd576123dc612d2b565b5b60006123eb848285016121d6565b91505092915050565b60006020828403121561240a57612409612d2b565b5b6000612418848285016121eb565b91505092915050565b60008060008060008060c0878903121561243e5761243d612d2b565b5b600061244c89828a016121d6565b965050602087013567ffffffffffffffff81111561246d5761246c612d26565b5b61247989828a016121a8565b955050604061248a89828a016121d6565b945050606061249b89828a0161217e565b93505060806124ac89828a016121d6565b92505060a06124bd89828a01612193565b9150509295509295509295565b60006124d683836126bf565b60408301905092915050565b6124eb81612b00565b82525050565b6124fa81612b00565b82525050565b600061250b82612a26565b6125158185612a49565b935061252083612a01565b8060005b8381101561255157815161253888826124ca565b975061254383612a3c565b925050600181019050612524565b5085935050505092915050565b61256781612b12565b82525050565b600061257882612a31565b6125828185612a5a565b9350612592818560208601612b57565b61259b81612d30565b840191505092915050565b60006125b182612a31565b6125bb8185612a6b565b93506125cb818560208601612b57565b80840191505092915050565b600081546125e481612bb4565b6125ee8186612a6b565b94506001821660008114612609576001811461261a5761264d565b60ff1983168652818601935061264d565b61262385612a11565b60005b8381101561264557815481890152600182019150602081019050612626565b838801955050505b50505092915050565b6000612663601483612a5a565b915061266e82612d41565b602082019050919050565b6000612686601383612a5a565b915061269182612d6a565b602082019050919050565b60006126a9601a83612a5a565b91506126b482612d93565b602082019050919050565b6040820160008201516126d560008501826124e2565b5060208201516126e860208501826126ee565b50505050565b6126f781612b3e565b82525050565b61270681612b3e565b82525050565b600061271882846125a6565b915081905092915050565b600061272f82846125d7565b915081905092915050565b600060208201905061274f60008301846124f1565b92915050565b600060408201905061276a60008301856124f1565b61277760208301846126fd565b9392505050565b600060208201905081810360008301526127988184612500565b905092915050565b60006020820190506127b5600083018461255e565b92915050565b60006040820190506127d0600083018561255e565b81810360208301526127e2818461256d565b90509392505050565b60006040820190508181036000830152612805818561256d565b90508181036020830152612819818461256d565b90509392505050565b6000608082019050818103600083015261283c818761256d565b905061284b60208301866126fd565b61285860408301856124f1565b61286560608301846126fd565b95945050505050565b600060a0820190508181036000830152612888818861256d565b905061289760208301876126fd565b6128a460408301866124f1565b6128b160608301856126fd565b6128be608083018461255e565b9695505050505050565b600060208201905081810360008301526128e181612656565b9050919050565b6000602082019050818103600083015261290181612679565b9050919050565b600060208201905081810360008301526129218161269c565b9050919050565b600060208201905061293d60008301846126fd565b92915050565b600060c08201905061295860008301896126fd565b818103602083015261296a818861256d565b905061297960408301876126fd565b61298660608301866124f1565b61299360808301856126fd565b6129a060a083018461255e565b979650505050505050565b60006129b56129c6565b90506129c18282612be6565b919050565b6000604051905090565b600067ffffffffffffffff8211156129eb576129ea612ced565b5b6129f482612d30565b9050602081019050919050565b6000819050602082019050919050565b60008190508160005260206000209050919050565b600081519050919050565b600081519050919050565b6000602082019050919050565b600082825260208201905092915050565b600082825260208201905092915050565b600081905092915050565b6000612a8182612b3e565b9150612a8c83612b3e565b9250827fffffffffffffffffffffffffffffffffffffffffffffffffffffffffffffffff03821115612ac157612ac0612c60565b5b828201905092915050565b6000612ad782612b3e565b9150612ae283612b3e565b925082821015612af557612af4612c60565b5b828203905092915050565b6000612b0b82612b1e565b9050919050565b60008115159050919050565b600073ffffffffffffffffffffffffffffffffffffffff82169050919050565b6000819050919050565b82818337600083830152505050565b60005b83811015612b75578082015181840152602081019050612b5a565b83811115612b84576000848401525b50505050565b6000612b9582612b3e565b91506000821415612ba957612ba8612c60565b5b600182039050919050565b60006002820490506001821680612bcc57607f821691505b60208210811415612be057612bdf612c8f565b5b50919050565b612bef82612d30565b810181811067ffffffffffffffff82111715612c0e57612c0d612ced565b5b80604052505050565b6000612c2282612b3e565b91507fffffffffffffffffffffffffffffffffffffffffffffffffffffffffffffffff821415612c5557612c54612c60565b5b600182019050919050565b7f4e487b7100000000000000000000000000000000000000000000000000000000600052601160045260246000fd5b7f4e487b7100000000000000000000000000000000000000000000000000000000600052602260045260246000fd5b7f4e487b7100000000000000000000000000000000000000000000000000000000600052603260045260246000fd5b7f4e487b7100000000000000000000000000000000000000000000000000000000600052604160045260246000fd5b600080fd5b600080fd5b600080fd5b600080fd5b6000601f19601f8301169050919050565b7f517565737420646f6573206e6f74206578697374000000000000000000000000600082015250565b7f5175657374206973206e6f742061637469766500000000000000000000000000600082015250565b7f496e73756666696369656e7420746f6b656e2062616c616e6365000000000000600082015250565b612dc581612b00565b8114612dd057600080fd5b50565b612ddc81612b12565b8114612de757600080fd5b50565b612df381612b3e565b8114612dfe57600080fd5b5056fea26469706673582212206c96089a64b3f15fcafb24177f0bd830aebd8821114cbc150a34d84ecceb1c3d64736f6c63430008070033",
  "linkReferences": {},
  "deployedLinkReferences": {}
}