{
  "_format": "hh-sol-artifact-1",
  "contractName": "Quests",
  "sourceName": "contracts/Quests.sol",
  "abi": [
    {
      "inputs": [
        {
          "internalType": "address",
          "name": "_adminAddress",
          "type": "address"
        }
      ],
      "stateMutability": "nonpayable",
      "type": "constructor"
    },
    {
      "anonymous": false,
      "inputs": [
        {
          "indexed": true,
          "internalType": "address",
          "name": "admin",
          "type": "address"
        }
      ],
      "name": "AdminLoggedIn",
      "type": "event"
    },
    {
      "anonymous": false,
      "inputs": [
        {
          "indexed": true,
          "internalType": "address",
          "name": "admin",
          "type": "address"
        }
      ],
      "name": "AdminLoggedOut",
      "type": "event"
    },
    {
      "anonymous": false,
      "inputs": [
        {
          "indexed": true,
          "internalType": "address",
          "name": "admin",
          "type": "address"
        },
        {
          "indexed": false,
          "internalType": "string",
          "name": "name",
          "type": "string"
        },
        {
          "indexed": false,
          "internalType": "string",
          "name": "ipfsImageHash",
          "type": "string"
        }
      ],
      "name": "AdminRegistered",
      "type": "event"
    },
    {
      "anonymous": false,
      "inputs": [
        {
          "indexed": true,
          "internalType": "uint256",
          "name": "questId",
          "type": "uint256"
        },
        {
          "indexed": true,
          "internalType": "address",
          "name": "user",
          "type": "address"
        }
      ],
      "name": "QuestCompleted",
      "type": "event"
    },
    {
      "anonymous": false,
      "inputs": [
        {
          "indexed": true,
          "internalType": "uint256",
          "name": "questId",
          "type": "uint256"
        },
        {
          "indexed": false,
          "internalType": "string",
          "name": "description",
          "type": "string"
        },
        {
          "indexed": false,
          "internalType": "uint256",
          "name": "points",
          "type": "uint256"
        },
        {
          "indexed": false,
          "internalType": "address",
          "name": "requiredTokenAddress",
          "type": "address"
        },
        {
          "indexed": false,
          "internalType": "uint256",
          "name": "requiredTokenAmount",
          "type": "uint256"
        }
      ],
      "name": "QuestCreated",
      "type": "event"
    },
    {
      "anonymous": false,
      "inputs": [
        {
          "indexed": true,
          "internalType": "uint256",
          "name": "questId",
          "type": "uint256"
        }
      ],
      "name": "QuestDeleted",
      "type": "event"
    },
    {
      "anonymous": false,
      "inputs": [
        {
          "indexed": true,
          "internalType": "uint256",
          "name": "questId",
          "type": "uint256"
        },
        {
          "indexed": false,
          "internalType": "string",
          "name": "description",
          "type": "string"
        },
        {
          "indexed": false,
          "internalType": "uint256",
          "name": "points",
          "type": "uint256"
        },
        {
          "indexed": false,
          "internalType": "address",
          "name": "requiredTokenAddress",
          "type": "address"
        },
        {
          "indexed": false,
          "internalType": "uint256",
          "name": "requiredTokenAmount",
          "type": "uint256"
        },
        {
          "indexed": false,
          "internalType": "bool",
          "name": "active",
          "type": "bool"
        }
      ],
      "name": "QuestUpdated",
      "type": "event"
    },
    {
      "anonymous": false,
      "inputs": [
        {
          "indexed": true,
          "internalType": "address",
          "name": "user",
          "type": "address"
        }
      ],
      "name": "UserLoggedIn",
      "type": "event"
    },
    {
      "anonymous": false,
      "inputs": [
        {
          "indexed": true,
          "internalType": "address",
          "name": "user",
          "type": "address"
        }
      ],
      "name": "UserLoggedOut",
      "type": "event"
    },
    {
      "anonymous": false,
      "inputs": [
        {
          "indexed": true,
          "internalType": "address",
          "name": "user",
          "type": "address"
        },
        {
          "indexed": false,
          "internalType": "string",
          "name": "name",
          "type": "string"
        },
        {
          "indexed": false,
          "internalType": "string",
          "name": "ipfsImageHash",
          "type": "string"
        }
      ],
      "name": "UserRegistered",
      "type": "event"
    },
    {
      "inputs": [
        {
          "internalType": "address",
          "name": "_address",
          "type": "address"
        }
      ],
      "name": "checkIsAdminLogged",
      "outputs": [
        {
          "internalType": "bool",
          "name": "",
          "type": "bool"
        },
        {
          "internalType": "string",
          "name": "",
          "type": "string"
        }
      ],
      "stateMutability": "view",
      "type": "function"
    },
    {
      "inputs": [
        {
          "internalType": "address",
          "name": "_address",
          "type": "address"
        }
      ],
      "name": "checkIsUserLogged",
      "outputs": [
        {
          "internalType": "bool",
          "name": "",
          "type": "bool"
        },
        {
          "internalType": "string",
          "name": "",
          "type": "string"
        }
      ],
      "stateMutability": "view",
      "type": "function"
    },
    {
      "inputs": [
        {
          "internalType": "uint256",
          "name": "questId",
          "type": "uint256"
        }
      ],
      "name": "completeQuest",
      "outputs": [],
      "stateMutability": "nonpayable",
      "type": "function"
    },
    {
      "inputs": [
        {
          "internalType": "string",
          "name": "description",
          "type": "string"
        },
        {
          "internalType": "uint256",
          "name": "points",
          "type": "uint256"
        },
        {
          "internalType": "address",
          "name": "requiredTokenAddress",
          "type": "address"
        },
        {
          "internalType": "uint256",
          "name": "requiredTokenAmount",
          "type": "uint256"
        }
      ],
      "name": "createQuest",
      "outputs": [],
      "stateMutability": "nonpayable",
      "type": "function"
    },
    {
      "inputs": [
        {
          "internalType": "uint256",
          "name": "questId",
          "type": "uint256"
        }
      ],
      "name": "deleteQuest",
      "outputs": [],
      "stateMutability": "nonpayable",
      "type": "function"
    },
    {
      "inputs": [],
      "name": "eggsAddress",
      "outputs": [
        {
          "internalType": "address",
          "name": "",
          "type": "address"
        }
      ],
      "stateMutability": "view",
      "type": "function"
    },
    {
      "inputs": [
        {
          "internalType": "address",
          "name": "_address",
          "type": "address"
        }
      ],
      "name": "getAdminBalance",
      "outputs": [
        {
          "internalType": "uint256",
          "name": "",
          "type": "uint256"
        }
      ],
      "stateMutability": "view",
      "type": "function"
    },
    {
      "inputs": [],
      "name": "getTop10Players",
      "outputs": [
        {
          "components": [
            {
              "internalType": "address",
              "name": "user",
              "type": "address"
            },
            {
              "internalType": "uint256",
              "name": "points",
              "type": "uint256"
            }
          ],
          "internalType": "struct Quests.Player[]",
          "name": "",
          "type": "tuple[]"
        }
      ],
      "stateMutability": "view",
      "type": "function"
    },
    {
      "inputs": [],
      "name": "iotabotsAddress",
      "outputs": [
        {
          "internalType": "address",
          "name": "",
          "type": "address"
        }
      ],
      "stateMutability": "view",
      "type": "function"
    },
    {
      "inputs": [
        {
          "internalType": "uint256",
          "name": "",
          "type": "uint256"
        }
      ],
      "name": "leaderboard",
      "outputs": [
        {
          "internalType": "address",
          "name": "user",
          "type": "address"
        },
        {
          "internalType": "uint256",
          "name": "points",
          "type": "uint256"
        }
      ],
      "stateMutability": "view",
      "type": "function"
    },
    {
      "inputs": [
        {
          "internalType": "address",
          "name": "_address",
          "type": "address"
        },
        {
          "internalType": "string",
          "name": "_password",
          "type": "string"
        }
      ],
      "name": "loginAdmin",
      "outputs": [
        {
          "internalType": "bool",
          "name": "",
          "type": "bool"
        }
      ],
      "stateMutability": "nonpayable",
      "type": "function"
    },
    {
      "inputs": [
        {
          "internalType": "address",
          "name": "_address",
          "type": "address"
        },
        {
          "internalType": "string",
          "name": "_password",
          "type": "string"
        }
      ],
      "name": "loginUser",
      "outputs": [
        {
          "internalType": "bool",
          "name": "",
          "type": "bool"
        }
      ],
      "stateMutability": "nonpayable",
      "type": "function"
    },
    {
      "inputs": [
        {
          "internalType": "address",
          "name": "_address",
          "type": "address"
        }
      ],
      "name": "logoutAdmin",
      "outputs": [],
      "stateMutability": "nonpayable",
      "type": "function"
    },
    {
      "inputs": [
        {
          "internalType": "address",
          "name": "_address",
          "type": "address"
        }
      ],
      "name": "logoutUser",
      "outputs": [],
      "stateMutability": "nonpayable",
      "type": "function"
    },
    {
      "inputs": [],
      "name": "nextQuestId",
      "outputs": [
        {
          "internalType": "uint256",
          "name": "",
          "type": "uint256"
        }
      ],
      "stateMutability": "view",
      "type": "function"
    },
    {
      "inputs": [
        {
          "internalType": "uint256",
          "name": "",
          "type": "uint256"
        }
      ],
      "name": "quests",
      "outputs": [
        {
          "internalType": "uint256",
          "name": "id",
          "type": "uint256"
        },
        {
          "internalType": "string",
          "name": "description",
          "type": "string"
        },
        {
          "internalType": "uint256",
          "name": "points",
          "type": "uint256"
        },
        {
          "internalType": "address",
          "name": "requiredTokenAddress",
          "type": "address"
        },
        {
          "internalType": "uint256",
          "name": "requiredTokenAmount",
          "type": "uint256"
        },
        {
          "internalType": "bool",
          "name": "active",
          "type": "bool"
        }
      ],
      "stateMutability": "view",
      "type": "function"
    },
    {
      "inputs": [
        {
          "internalType": "address",
          "name": "_address",
          "type": "address"
        },
        {
          "internalType": "string",
          "name": "_name",
          "type": "string"
        },
        {
          "internalType": "string",
          "name": "_password",
          "type": "string"
        },
        {
          "internalType": "string",
          "name": "_ipfsImageHash",
          "type": "string"
        }
      ],
      "name": "registerAdmin",
      "outputs": [
        {
          "internalType": "bool",
          "name": "",
          "type": "bool"
        }
      ],
      "stateMutability": "nonpayable",
      "type": "function"
    },
    {
      "inputs": [
        {
          "internalType": "address",
          "name": "_address",
          "type": "address"
        },
        {
          "internalType": "string",
          "name": "_name",
          "type": "string"
        },
        {
          "internalType": "string",
          "name": "_password",
          "type": "string"
        },
        {
          "internalType": "string",
          "name": "_ipfsImageHash",
          "type": "string"
        }
      ],
      "name": "registerUser",
      "outputs": [
        {
          "internalType": "bool",
          "name": "",
          "type": "bool"
        }
      ],
      "stateMutability": "nonpayable",
      "type": "function"
    },
    {
      "inputs": [
        {
          "internalType": "uint256",
          "name": "questId",
          "type": "uint256"
        },
        {
          "internalType": "string",
          "name": "description",
          "type": "string"
        },
        {
          "internalType": "uint256",
          "name": "points",
          "type": "uint256"
        },
        {
          "internalType": "address",
          "name": "requiredTokenAddress",
          "type": "address"
        },
        {
          "internalType": "uint256",
          "name": "requiredTokenAmount",
          "type": "uint256"
        },
        {
          "internalType": "bool",
          "name": "active",
          "type": "bool"
        }
      ],
      "name": "updateQuest",
      "outputs": [],
      "stateMutability": "nonpayable",
      "type": "function"
    },
    {
      "inputs": [
        {
          "internalType": "address",
          "name": "",
          "type": "address"
        }
      ],
      "name": "userPoints",
      "outputs": [
        {
          "internalType": "uint256",
          "name": "",
          "type": "uint256"
        }
      ],
      "stateMutability": "view",
      "type": "function"
    }
  ],
  "bytecode": "0x60806040523480156200001157600080fd5b5060405162002c1e38038062002c1e833981810160405281019062000037919062000096565b80600860006101000a81548173ffffffffffffffffffffffffffffffffffffffff021916908373ffffffffffffffffffffffffffffffffffffffff160217905550506200011b565b600081519050620000908162000101565b92915050565b600060208284031215620000af57620000ae620000fc565b5b6000620000bf848285016200007f565b91505092915050565b6000620000d582620000dc565b9050919050565b600073ffffffffffffffffffffffffffffffffffffffff82169050919050565b600080fd5b6200010c81620000c8565b81146200011857600080fd5b50565b612af3806200012b6000396000f3fe608060405234801561001057600080fd5b506004361061012c5760003560e01c8063645cf80f116100ad578063bf36839911610071578063bf36839914610355578063d638c98314610386578063e085f980146103a4578063f50ddbc7146103d9578063fe69c296146104095761012c565b8063645cf80f1461029e5780638c9e36ab146102ba57806395b31305146102d857806398711c17146102f45780639f60fabc146103255761012c565b8063297f7b39116100f4578063297f7b39146101e5578063434917af14610216578063528be0a91461024657806358fe2796146102625780635f7018eb146102805761012c565b806303bdb46b1461013157806309df5060146101615780630f7deff31461017d578063103d36b814610199578063128c9f01146101b5575b600080fd5b61014b60048036038101906101469190611f8f565b610439565b6040516101589190612502565b60405180910390f35b61017b60048036038101906101769190611f62565b6105cf565b005b610197600480360381019061019291906120a6565b610670565b005b6101b360048036038101906101ae9190612129565b6107ea565b005b6101cf60048036038101906101ca9190611f62565b610918565b6040516101dc91906125e4565b60405180910390f35b6101ff60048036038101906101fa9190611f62565b61099b565b60405161020d92919061251d565b60405180910390f35b610230600480360381019061022b9190611f8f565b610ac6565b60405161023d9190612502565b60405180910390f35b610260600480360381019061025b9190612129565b610c1a565b005b61026a610d93565b604051610277919061249c565b60405180910390f35b610288610db9565b60405161029591906124e0565b60405180910390f35b6102b860048036038101906102b39190611f62565b610e78565b005b6102c2610ed6565b6040516102cf919061249c565b60405180910390f35b6102f260048036038101906102ed9190612183565b610efc565b005b61030e60048036038101906103099190611f62565b61109a565b60405161031c92919061251d565b60405180910390f35b61033f600480360381019061033a9190611feb565b6111c5565b60405161034c9190612502565b60405180910390f35b61036f600480360381019061036a9190612129565b6114a9565b60405161037d9291906124b7565b60405180910390f35b61038e6114fd565b60405161039b91906125e4565b60405180910390f35b6103be60048036038101906103b99190612129565b611503565b6040516103d0969594939291906125ff565b60405180910390f35b6103f360048036038101906103ee9190611f62565b6115f4565b60405161040091906125e4565b60405180910390f35b610423600480360381019061041e9190611feb565b61160c565b6040516104309190612502565b60405180910390f35b60008160405160200161044c919061246e565b60405160208183030381529060405280519060200120600160008573ffffffffffffffffffffffffffffffffffffffff1673ffffffffffffffffffffffffffffffffffffffff1681526020019081526020016000206002016040516020016104b49190612485565b6040516020818303038152906040528051906020012014156105c45760018060008573ffffffffffffffffffffffffffffffffffffffff1673ffffffffffffffffffffffffffffffffffffffff16815260200190815260200160002060040160006101000a81548160ff0219169083151502179055508273ffffffffffffffffffffffffffffffffffffffff167f8d15fde878cff665868ed7579eb5081db6508d4249df61dcdd7699a5301d987460405160405180910390a2600160008473ffffffffffffffffffffffffffffffffffffffff1673ffffffffffffffffffffffffffffffffffffffff16815260200190815260200160002060040160009054906101000a900460ff1690506105c9565b600090505b92915050565b6000600160008373ffffffffffffffffffffffffffffffffffffffff1673ffffffffffffffffffffffffffffffffffffffff16815260200190815260200160002060040160006101000a81548160ff0219169083151502179055508073ffffffffffffffffffffffffffffffffffffffff167fc6ef449222bae3754898fc5fa944d52dfc53c0ee1fdd7d733fbb422ac5e2b8c860405160405180910390a250565b600860009054906101000a900473ffffffffffffffffffffffffffffffffffffffff1673ffffffffffffffffffffffffffffffffffffffff163373ffffffffffffffffffffffffffffffffffffffff16146106ca57600080fd5b6040518060c0016040528060065481526020018581526020018481526020018373ffffffffffffffffffffffffffffffffffffffff1681526020018281526020016001151581525060056000600654815260200190815260200160002060008201518160000155602082015181600101908051906020019061074d929190611dbb565b506040820151816002015560608201518160030160006101000a81548173ffffffffffffffffffffffffffffffffffffffff021916908373ffffffffffffffffffffffffffffffffffffffff1602179055506080820151816004015560a08201518160050160006101000a81548160ff021916908315150217905550905050600660008154809291906107df906128d3565b919050555050505050565b600860009054906101000a900473ffffffffffffffffffffffffffffffffffffffff1673ffffffffffffffffffffffffffffffffffffffff163373ffffffffffffffffffffffffffffffffffffffff161461084457600080fd5b8060056000838152602001908152602001600020600001541461089c576040517f08c379a000000000000000000000000000000000000000000000000000000000815260040161089390612584565b60405180910390fd5b600560008281526020019081526020016000206000808201600090556001820160006108c89190611e41565b60028201600090556003820160006101000a81549073ffffffffffffffffffffffffffffffffffffffff021916905560048201600090556005820160006101000a81549060ff0219169055505050565b6000600760008373ffffffffffffffffffffffffffffffffffffffff1673ffffffffffffffffffffffffffffffffffffffff16815260200190815260200160002060000160009054906101000a900473ffffffffffffffffffffffffffffffffffffffff1673ffffffffffffffffffffffffffffffffffffffff16319050919050565b60006060600160008473ffffffffffffffffffffffffffffffffffffffff1673ffffffffffffffffffffffffffffffffffffffff16815260200190815260200160002060040160009054906101000a900460ff16600160008573ffffffffffffffffffffffffffffffffffffffff1673ffffffffffffffffffffffffffffffffffffffff168152602001908152602001600020600301808054610a3d90612870565b80601f0160208091040260200160405190810160405280929190818152602001828054610a6990612870565b8015610ab65780601f10610a8b57610100808354040283529160200191610ab6565b820191906000526020600020905b815481529060010190602001808311610a9957829003601f168201915b5050505050905091509150915091565b600081604051602001610ad9919061246e565b60405160208183030381529060405280519060200120600760008573ffffffffffffffffffffffffffffffffffffffff1673ffffffffffffffffffffffffffffffffffffffff168152602001908152602001600020600201604051602001610b419190612485565b604051602081830303815290604052805190602001201415610c0f576001600760008573ffffffffffffffffffffffffffffffffffffffff1673ffffffffffffffffffffffffffffffffffffffff16815260200190815260200160002060040160006101000a81548160ff021916908315150217905550600760008473ffffffffffffffffffffffffffffffffffffffff1673ffffffffffffffffffffffffffffffffffffffff16815260200190815260200160002060040160009054906101000a900460ff169050610c14565b600090505b92915050565b60006005600083815260200190815260200160002090508060050160009054906101000a900460ff16610c82576040517f08c379a0000000000000000000000000000000000000000000000000000000008152600401610c79906125a4565b60405180910390fd5b60008160030160009054906101000a900473ffffffffffffffffffffffffffffffffffffffff16905060008173ffffffffffffffffffffffffffffffffffffffff166370a08231336040518263ffffffff1660e01b8152600401610ce6919061249c565b60206040518083038186803b158015610cfe57600080fd5b505afa158015610d12573d6000803e3d6000fd5b505050506040513d601f19601f82011682018060405250810190610d369190612156565b90508260040154811015610d7f576040517f08c379a0000000000000000000000000000000000000000000000000000000008152600401610d76906125c4565b60405180910390fd5b610d8d338460020154611941565b50505050565b600360009054906101000a900473ffffffffffffffffffffffffffffffffffffffff1681565b60606000805480602002602001604051908101604052809291908181526020016000905b82821015610e6f57838290600052602060002090600202016040518060400160405290816000820160009054906101000a900473ffffffffffffffffffffffffffffffffffffffff1673ffffffffffffffffffffffffffffffffffffffff1673ffffffffffffffffffffffffffffffffffffffff16815260200160018201548152505081526020019060010190610ddd565b50505050905090565b6000600760008373ffffffffffffffffffffffffffffffffffffffff1673ffffffffffffffffffffffffffffffffffffffff16815260200190815260200160002060040160006101000a81548160ff02191690831515021790555050565b600460009054906101000a900473ffffffffffffffffffffffffffffffffffffffff1681565b600860009054906101000a900473ffffffffffffffffffffffffffffffffffffffff1673ffffffffffffffffffffffffffffffffffffffff163373ffffffffffffffffffffffffffffffffffffffff1614610f5657600080fd5b85600560008881526020019081526020016000206000015414610fae576040517f08c379a0000000000000000000000000000000000000000000000000000000008152600401610fa590612584565b60405180910390fd5b84600560008881526020019081526020016000206001019080519060200190610fd8929190611dbb565b50836005600088815260200190815260200160002060020181905550826005600088815260200190815260200160002060030160006101000a81548173ffffffffffffffffffffffffffffffffffffffff021916908373ffffffffffffffffffffffffffffffffffffffff160217905550816005600088815260200190815260200160002060040181905550806005600088815260200190815260200160002060050160006101000a81548160ff021916908315150217905550505050505050565b60006060600760008473ffffffffffffffffffffffffffffffffffffffff1673ffffffffffffffffffffffffffffffffffffffff16815260200190815260200160002060040160009054906101000a900460ff16600760008573ffffffffffffffffffffffffffffffffffffffff1673ffffffffffffffffffffffffffffffffffffffff16815260200190815260200160002060030180805461113c90612870565b80601f016020809104026020016040519081016040528092919081815260200182805461116890612870565b80156111b55780601f1061118a576101008083540402835291602001916111b5565b820191906000526020600020905b81548152906001019060200180831161119857829003601f168201915b5050505050905091509150915091565b6000600860009054906101000a900473ffffffffffffffffffffffffffffffffffffffff1673ffffffffffffffffffffffffffffffffffffffff163373ffffffffffffffffffffffffffffffffffffffff161461122157600080fd5b3373ffffffffffffffffffffffffffffffffffffffff16600760008773ffffffffffffffffffffffffffffffffffffffff1673ffffffffffffffffffffffffffffffffffffffff16815260200190815260200160002060000160009054906101000a900473ffffffffffffffffffffffffffffffffffffffff1673ffffffffffffffffffffffffffffffffffffffff1614156112bc57600080fd5b84600760008773ffffffffffffffffffffffffffffffffffffffff1673ffffffffffffffffffffffffffffffffffffffff16815260200190815260200160002060000160006101000a81548173ffffffffffffffffffffffffffffffffffffffff021916908373ffffffffffffffffffffffffffffffffffffffff16021790555083600760008773ffffffffffffffffffffffffffffffffffffffff1673ffffffffffffffffffffffffffffffffffffffff1681526020019081526020016000206001019080519060200190611393929190611dbb565b5082600760008773ffffffffffffffffffffffffffffffffffffffff1673ffffffffffffffffffffffffffffffffffffffff16815260200190815260200160002060020190805190602001906113ea929190611dbb565b5081600760008773ffffffffffffffffffffffffffffffffffffffff1673ffffffffffffffffffffffffffffffffffffffff1681526020019081526020016000206003019080519060200190611441929190611dbb565b506000600760008773ffffffffffffffffffffffffffffffffffffffff1673ffffffffffffffffffffffffffffffffffffffff16815260200190815260200160002060040160006101000a81548160ff02191690831515021790555060019050949350505050565b600081815481106114b957600080fd5b90600052602060002090600202016000915090508060000160009054906101000a900473ffffffffffffffffffffffffffffffffffffffff16908060010154905082565b60065481565b600560205280600052604060002060009150905080600001549080600101805461152c90612870565b80601f016020809104026020016040519081016040528092919081815260200182805461155890612870565b80156115a55780601f1061157a576101008083540402835291602001916115a5565b820191906000526020600020905b81548152906001019060200180831161158857829003601f168201915b5050505050908060020154908060030160009054906101000a900473ffffffffffffffffffffffffffffffffffffffff16908060040154908060050160009054906101000a900460ff16905086565b60026020528060005260406000206000915090505481565b6000600860009054906101000a900473ffffffffffffffffffffffffffffffffffffffff1673ffffffffffffffffffffffffffffffffffffffff163373ffffffffffffffffffffffffffffffffffffffff16141561166957600080fd5b3373ffffffffffffffffffffffffffffffffffffffff16600160008773ffffffffffffffffffffffffffffffffffffffff1673ffffffffffffffffffffffffffffffffffffffff16815260200190815260200160002060000160009054906101000a900473ffffffffffffffffffffffffffffffffffffffff1673ffffffffffffffffffffffffffffffffffffffff16141561170457600080fd5b84600160008773ffffffffffffffffffffffffffffffffffffffff1673ffffffffffffffffffffffffffffffffffffffff16815260200190815260200160002060000160006101000a81548173ffffffffffffffffffffffffffffffffffffffff021916908373ffffffffffffffffffffffffffffffffffffffff16021790555083600160008773ffffffffffffffffffffffffffffffffffffffff1673ffffffffffffffffffffffffffffffffffffffff16815260200190815260200160002060010190805190602001906117db929190611dbb565b5082600160008773ffffffffffffffffffffffffffffffffffffffff1673ffffffffffffffffffffffffffffffffffffffff1681526020019081526020016000206002019080519060200190611832929190611dbb565b5081600160008773ffffffffffffffffffffffffffffffffffffffff1673ffffffffffffffffffffffffffffffffffffffff1681526020019081526020016000206003019080519060200190611889929190611dbb565b506000600160008773ffffffffffffffffffffffffffffffffffffffff1673ffffffffffffffffffffffffffffffffffffffff16815260200190815260200160002060040160006101000a81548160ff0219169083151502179055508473ffffffffffffffffffffffffffffffffffffffff167f92822564bab8864c3a47b34e8d23fbce5c46234eb5da261f94087b995ac0f33b858460405161192d92919061254d565b60405180910390a260019050949350505050565b80600260008473ffffffffffffffffffffffffffffffffffffffff1673ffffffffffffffffffffffffffffffffffffffff16815260200190815260200160002060008282546119909190612732565b925050819055506119a0826119a4565b5050565b6000600260008373ffffffffffffffffffffffffffffffffffffffff1673ffffffffffffffffffffffffffffffffffffffff16815260200190815260200160002054905060007fffffffffffffffffffffffffffffffffffffffffffffffffffffffffffffffff905060005b600080549050811015611b375760008181548110611a3157611a3061297a565b5b906000526020600020906002020160000160009054906101000a900473ffffffffffffffffffffffffffffffffffffffff1673ffffffffffffffffffffffffffffffffffffffff168473ffffffffffffffffffffffffffffffffffffffff161415611ac8578260008281548110611aab57611aaa61297a565b5b906000526020600020906002020160010181905550505050611db8565b7fffffffffffffffffffffffffffffffffffffffffffffffffffffffffffffffff82148015611b1b575060008181548110611b0657611b0561297a565b5b90600052602060002090600202016001015483115b15611b24578091505b8080611b2f906128d3565b915050611a10565b507fffffffffffffffffffffffffffffffffffffffffffffffffffffffffffffffff8114611db557600a6000805490501015611c1b57600060405180604001604052808573ffffffffffffffffffffffffffffffffffffffff16815260200184815250908060018154018082558091505060019003906000526020600020906002020160009091909190915060008201518160000160006101000a81548173ffffffffffffffffffffffffffffffffffffffff021916908373ffffffffffffffffffffffffffffffffffffffff160217905550602082015181600101555050611db4565b60006001600080549050611c2f9190612788565b90505b81811115611d11576000600182611c499190612788565b81548110611c5a57611c5961297a565b5b906000526020600020906002020160008281548110611c7c57611c7b61297a565b5b90600052602060002090600202016000820160009054906101000a900473ffffffffffffffffffffffffffffffffffffffff168160000160006101000a81548173ffffffffffffffffffffffffffffffffffffffff021916908373ffffffffffffffffffffffffffffffffffffffff160217905550600182015481600101559050508080611d0990612846565b915050611c32565b5060405180604001604052808473ffffffffffffffffffffffffffffffffffffffff1681526020018381525060008281548110611d5157611d5061297a565b5b906000526020600020906002020160008201518160000160006101000a81548173ffffffffffffffffffffffffffffffffffffffff021916908373ffffffffffffffffffffffffffffffffffffffff160217905550602082015181600101559050505b5b50505b50565b828054611dc790612870565b90600052602060002090601f016020900481019282611de95760008555611e30565b82601f10611e0257805160ff1916838001178555611e30565b82800160010185558215611e30579182015b82811115611e2f578251825591602001919060010190611e14565b5b509050611e3d9190611e81565b5090565b508054611e4d90612870565b6000825580601f10611e5f5750611e7e565b601f016020900490600052602060002090810190611e7d9190611e81565b5b50565b5b80821115611e9a576000816000905550600101611e82565b5090565b6000611eb1611eac8461268c565b612667565b905082815260208101848484011115611ecd57611ecc6129dd565b5b611ed8848285612804565b509392505050565b600081359050611eef81612a78565b92915050565b600081359050611f0481612a8f565b92915050565b600082601f830112611f1f57611f1e6129d8565b5b8135611f2f848260208601611e9e565b91505092915050565b600081359050611f4781612aa6565b92915050565b600081519050611f5c81612aa6565b92915050565b600060208284031215611f7857611f776129e7565b5b6000611f8684828501611ee0565b91505092915050565b60008060408385031215611fa657611fa56129e7565b5b6000611fb485828601611ee0565b925050602083013567ffffffffffffffff811115611fd557611fd46129e2565b5b611fe185828601611f0a565b9150509250929050565b60008060008060808587031215612005576120046129e7565b5b600061201387828801611ee0565b945050602085013567ffffffffffffffff811115612034576120336129e2565b5b61204087828801611f0a565b935050604085013567ffffffffffffffff811115612061576120606129e2565b5b61206d87828801611f0a565b925050606085013567ffffffffffffffff81111561208e5761208d6129e2565b5b61209a87828801611f0a565b91505092959194509250565b600080600080608085870312156120c0576120bf6129e7565b5b600085013567ffffffffffffffff8111156120de576120dd6129e2565b5b6120ea87828801611f0a565b94505060206120fb87828801611f38565b935050604061210c87828801611ee0565b925050606061211d87828801611f38565b91505092959194509250565b60006020828403121561213f5761213e6129e7565b5b600061214d84828501611f38565b91505092915050565b60006020828403121561216c5761216b6129e7565b5b600061217a84828501611f4d565b91505092915050565b60008060008060008060c087890312156121a05761219f6129e7565b5b60006121ae89828a01611f38565b965050602087013567ffffffffffffffff8111156121cf576121ce6129e2565b5b6121db89828a01611f0a565b95505060406121ec89828a01611f38565b94505060606121fd89828a01611ee0565b935050608061220e89828a01611f38565b92505060a061221f89828a01611ef5565b9150509295509295509295565b60006122388383612421565b60408301905092915050565b61224d816127bc565b82525050565b61225c816127bc565b82525050565b600061226d826126e2565b6122778185612705565b9350612282836126bd565b8060005b838110156122b357815161229a888261222c565b97506122a5836126f8565b925050600181019050612286565b5085935050505092915050565b6122c9816127ce565b82525050565b60006122da826126ed565b6122e48185612716565b93506122f4818560208601612813565b6122fd816129ec565b840191505092915050565b6000612313826126ed565b61231d8185612727565b935061232d818560208601612813565b80840191505092915050565b6000815461234681612870565b6123508186612727565b9450600182166000811461236b576001811461237c576123af565b60ff198316865281860193506123af565b612385856126cd565b60005b838110156123a757815481890152600182019150602081019050612388565b838801955050505b50505092915050565b60006123c5601483612716565b91506123d0826129fd565b602082019050919050565b60006123e8601383612716565b91506123f382612a26565b602082019050919050565b600061240b601a83612716565b915061241682612a4f565b602082019050919050565b6040820160008201516124376000850182612244565b50602082015161244a6020850182612450565b50505050565b612459816127fa565b82525050565b612468816127fa565b82525050565b600061247a8284612308565b915081905092915050565b60006124918284612339565b915081905092915050565b60006020820190506124b16000830184612253565b92915050565b60006040820190506124cc6000830185612253565b6124d9602083018461245f565b9392505050565b600060208201905081810360008301526124fa8184612262565b905092915050565b600060208201905061251760008301846122c0565b92915050565b600060408201905061253260008301856122c0565b818103602083015261254481846122cf565b90509392505050565b6000604082019050818103600083015261256781856122cf565b9050818103602083015261257b81846122cf565b90509392505050565b6000602082019050818103600083015261259d816123b8565b9050919050565b600060208201905081810360008301526125bd816123db565b9050919050565b600060208201905081810360008301526125dd816123fe565b9050919050565b60006020820190506125f9600083018461245f565b92915050565b600060c082019050612614600083018961245f565b818103602083015261262681886122cf565b9050612635604083018761245f565b6126426060830186612253565b61264f608083018561245f565b61265c60a08301846122c0565b979650505050505050565b6000612671612682565b905061267d82826128a2565b919050565b6000604051905090565b600067ffffffffffffffff8211156126a7576126a66129a9565b5b6126b0826129ec565b9050602081019050919050565b6000819050602082019050919050565b60008190508160005260206000209050919050565b600081519050919050565b600081519050919050565b6000602082019050919050565b600082825260208201905092915050565b600082825260208201905092915050565b600081905092915050565b600061273d826127fa565b9150612748836127fa565b9250827fffffffffffffffffffffffffffffffffffffffffffffffffffffffffffffffff0382111561277d5761277c61291c565b5b828201905092915050565b6000612793826127fa565b915061279e836127fa565b9250828210156127b1576127b061291c565b5b828203905092915050565b60006127c7826127da565b9050919050565b60008115159050919050565b600073ffffffffffffffffffffffffffffffffffffffff82169050919050565b6000819050919050565b82818337600083830152505050565b60005b83811015612831578082015181840152602081019050612816565b83811115612840576000848401525b50505050565b6000612851826127fa565b915060008214156128655761286461291c565b5b600182039050919050565b6000600282049050600182168061288857607f821691505b6020821081141561289c5761289b61294b565b5b50919050565b6128ab826129ec565b810181811067ffffffffffffffff821117156128ca576128c96129a9565b5b80604052505050565b60006128de826127fa565b91507fffffffffffffffffffffffffffffffffffffffffffffffffffffffffffffffff8214156129115761291061291c565b5b600182019050919050565b7f4e487b7100000000000000000000000000000000000000000000000000000000600052601160045260246000fd5b7f4e487b7100000000000000000000000000000000000000000000000000000000600052602260045260246000fd5b7f4e487b7100000000000000000000000000000000000000000000000000000000600052603260045260246000fd5b7f4e487b7100000000000000000000000000000000000000000000000000000000600052604160045260246000fd5b600080fd5b600080fd5b600080fd5b600080fd5b6000601f19601f8301169050919050565b7f517565737420646f6573206e6f74206578697374000000000000000000000000600082015250565b7f5175657374206973206e6f742061637469766500000000000000000000000000600082015250565b7f496e73756666696369656e7420746f6b656e2062616c616e6365000000000000600082015250565b612a81816127bc565b8114612a8c57600080fd5b50565b612a98816127ce565b8114612aa357600080fd5b50565b612aaf816127fa565b8114612aba57600080fd5b5056fea2646970667358221220df4f4739d1c50c7bca7d6331240db8f134643733b5ea640bb0b934ac2efc735464736f6c63430008070033",
  "linkReferences": {},
  "deployedLinkReferences": {}
}